S010000046696E616C4C61622E737265631B
S11300000C9434000C9451000C9451000C94510045
S11300100C9451000C9451000C9451000C94510018
S11300200C9451000C9451000C9451000C94510008
S11300300C9451000C9451000C94EE000C9451005B
S11300400C9451000C9451000C9451000C945100E8
S11300500C9451000C9451000C9451000C945100D8
S11300600C9451000C94510011241FBECFEFD8E022
S1130070DEBFCDBF11E0A0E0B1E0ECE9F8E002C0E2
S113008005900D92A431B107D9F721E0A4E1B1E0C4
S113009001C01D92AD31B207E1F70E947A000C94C1
S11300A04C040C940000AC01569547955695479521
S11300B047BD2091000130910101A8EEB3E00E94F8
S11300C05F019A0122953295307F3227207F3227B3
S11300D040E050E00E943D0130931501209314014B
S11300E01092160116BC84E085BD80911601882308
S11300F0E1F30895CF93DF93CDB7DEB76C970FB6D6
S1130100F894DEBF0FBECDBF8EE09E012F5F3F4F40
S11301106901F901282F11922A95E9F712E01C834D
S113012022E231E03A8729877E013FE0E30EF11CA9
S1130130F70111928A95E9F781E08A8B84E391E0D3
S11301409A8F898F0E941101E7E1F1E0D382C28284
S1130150F182E08284E08AB910936E00789480E49E
S113016080937C0087EE80937A000AE710E00F2EDC
S1130170F8E7AF2EB12CF02D0F2EF2E0CF2EF1E0E8
S1130180DF2EF02D6894882481F86894992492F8DD
S1130190F801808184FFFCCF808180618083F50138
S11301A0E080F180FF92EF92DF92CF920E946E0185
S11301B01092160184BC95BC16BCC7010E94530062
S11301C0FFEF23ED30E3F15020403040E1F700C071
S11301D000000F900F900F900F90DACF1F920F92A4
S11301E00FB60F9211248F939F9384E089B9809165
S11301F014019091150101979093150180931401B6
S11302008091140190911501892B21F481E0809350
S1130210160115BC9F918F910F900FBE0F901F90E8
S113022018951092C50087E68093C400E0ECF0E0D6
S113023080818D7F808386E08093C20088E18093F3
S1130240C1000895CF93C82F8A3019F48DE00E941D
S11302502201E0ECF0E0808185FFFDCFC093C60071
S113026080E090E0CF910895E0ECF0E08081882375
S1130270ECF78091C60090E00895A1E21A2EAA1B23
S1130280BB1BFD010DC0AA1FBB1FEE1FFF1FA21742
S1130290B307E407F50720F0A21BB30BE40BF50B3F
S11302A0661F771F881F991F1A9469F760957095C8
S11302B0809590959B01AC01BD01CF010895A29F4B
S11302C0B001B39FC001A39F700D811D1124911D26
S11302D0B29F700D811D1124911D0895A0E0B0E01E
S11302E0E4E7F1E00C942504AE014B5F5F4FFA01A3
S11302F061917191AF018091190190911A010E944D
S11303008401E2E00C944104ABE0B0E0EAE8F1E0FF
S11303100C9415046C017B018A01FC01178216827E
S1130320838181FFCCC1CE0101963C01F60193810A
S1130330F70193FD859193FF81917F01882309F44F
S1130340BAC1853239F493FD859193FF81917F0180
S1130350853229F4B60190E00E947B03E7CF912C0B
S1130360212C312CFFE1F315D8F08B3279F038F4DD
S1130370803279F08332A1F4232D20611DC08D32A7
S113038061F0803369F4232D216016C0832D8260CF
S1130390382EE32DE4603E2E2AC0F32DF8601DC0F4
S11303A037FC2DC020ED280F2A3040F08E32B9F4EE
S11303B036FC81C1232D2064322E19C036FE06C0BE
S11303C08AE0989E200D1124922E11C0EAE02E9E00
S11303D0200D1124222EF32DF0623F2E08C08C36FE
S11303E021F4832D8068382E02C0883641F4F70149
S11303F093FD859193FF81917F018111B3CF982F54
S11304009F7D9554933028F40C5F1F4F9FE399838D
S11304100DC0833631F0833771F0833509F059C04C
S113042021C0F801808189830E5F1F4F8824839443
S1130430912C530113C02801F2E04F0E511CF80116
S1130440A080B18036FE03C0692D70E002C06FEF5A
S11304507FEFC5010E9470034C018201F32DFF77E9
S11304603F2E16C0280122E0420E511CF801A08044
S1130470B18036FE03C0692D70E002C06FEF7FEFDC
S1130480C5010E9465034C01F32DF0683F2E8201E3
S113049033FC1BC0822D90E088169906B0F4B60197
S11304A080E290E00E947B032A94F4CFF50137FCAC
S11304B0859137FE81915F01B60190E00E947B0334
S11304C021102A9421E0821A91088114910471F771
S11304D0E8C0843611F0893641F5F80137FE07C0CB
S11304E060817181828193810C5F1F4F08C060819C
S11304F07181072E000C880B990B0E5F1F4FF32D93
S1130500FF763F2E97FF09C0909580957095619571
S11305107F4F8F4F9F4FF0683F2E2AE030E0A301BA
S11305200E94B703882E861845C0853731F4232DE1
S11305302F7EB22E2AE030E025C0932D997FB92E6C
S11305408F36C1F018F4883579F0B5C0803719F0CA
S1130550883721F0B0C0E92FE061BE2EB4FE0DC093
S1130560FB2DF460BF2E09C034FE0AC0292F26607B
S1130570B22E06C028E030E005C020E130E002C021
S113058020E132E0F801B7FE07C060817181828109
S113059093810C5F1F4F06C06081718180E090E001
S11305A00E5F1F4FA3010E94B703882E8618FB2DF0
S11305B0FF773F2E36FE0DC0232D2E7FA22E8914E9
S11305C058F434FE0BC032FC09C0832D8E7EA82E55
S11305D005C0B82CA32C03C0B82C01C0B92CA4FEB0
S11305E00FC0FE01E80DF11D8081803321F49A2DA6
S11305F0997EA92E09C0A2FE06C0B394B39404C088
S11306008A2D867809F0B394A3FC11C0A0FE06C01D
S1130610B21488F4280C922C9B180EC0B21460F407
S1130620B60180E290E00E947B03B394F7CFB2144A
S113063018F42B1802C0982C212CA4FE10C0B6016B
S113064080E390E00E947B03A2FE17C0A1FC03C0DC
S113065088E790E002C088E590E0B6010CC08A2DDE
S1130660867859F0A1FE02C08BE201C080E2A7FCAB
S11306708DE2B60190E00E947B03891438F4B60140
S113068080E390E00E947B039A94F7CF8A94F3016D
S1130690E80DF11D8081B60190E00E947B0381107A
S11306A0F5CF222009F442CEB60180E290E00E9408
S11306B07B032A94F6CFF6018681978102C08FEFDF
S11306C09FEF2B96E2E10C943104FC0105906150FC
S11306D070400110D8F7809590958E0F9F1F089554
S11306E0FC016150704001900110D8F780959095FD
S11306F08E0F9F1F08950F931F93CF93DF93FB01DA
S1130700238121FD03C08FEF9FEF2CC022FF16C071
S113071046815781248135814217530744F4A081CF
S1130720B1819D012F5F3F4F318320838C932681BC
S113073037812F5F3F4F3783268314C08B01EC0131
S1130740FB010084F185E02D0995892BE1F6D801A0
S113075016968D919C911797019617969C938E935C
S11307601697CE01DF91CF911F910F910895FA0151
S1130770AA27283051F1203181F1E8946F936E7FDC
S11307806E5F7F4F8F4F9F4FAF4FB1E03ED0B4E0CD
S11307903CD0670F781F891F9A1FA11D680F791F0E
S11307A08A1F911DA11D6A0F711D811D911DA11D1F
S11307B020D009F468943F912AE0269F112430192F
S11307C0305D3193DEF6CF010895462F4770405DCA
S11307D04193B3E00FD0C9F7F6CF462F4F70405D79
S11307E04A3318F0495D31FD4052419302D0A9F7D4
S11307F0EACFB4E0A6959795879577956795BA95CE
S1130800C9F700976105710508959B01AC010A2E93
S113081006945795479537952795BA95C9F7620F6A
S1130820731F841F951FA01D08952F923F924F920E
S11308305F926F927F928F929F92AF92BF92CF926C
S1130840DF92EF92FF920F931F93CF93DF93CDB775
S1130850DEB7CA1BDB0B0FB6F894DEBF0FBECDBFED
S113086009942A88398848885F846E847D848C84BE
S11308709B84AA84B984C884DF80EE80FD800C81C7
S11308801B81AA81B981CE0FD11D0FB6F894DEBFAA
S10F08900FBECDBFED010895F894FFCF1A
S113089CC800446174612072656164206973202509
S10708AC750A0000C5
S9030000FC
